:10A000000B123150C0FF4B4F3D4040000E430F41FB
:10A01000B0127CB13D4040003E40006A0F41B0129A
:10A0200082B05B93122003123012200030123002F3
:10A030003C4040000D430E413E5006003F4000FEB4
:10A04000B0126CB031500600393C031230122000BF
:10A05000301230023C4040000D430E413E5006009D
:10A060000F4EB0126CB031500600031230122A00AD
:10A07000301240013C4020000D430E413E5006008E
:10A080000F4EB0126CB031500600031230120010A7
:10A09000301200E03C4020000D430E413E500600CF
:10A0A0003F403002B0126CB0315006003640000321
:10A0B0002646315040003B413040FEDF31504000E9
:10A0C0003B413041BF40982F0000BF408A42020010
:10A0D000BF4091440400BF4037710600BF40CFFB32
:10A0E0000800BF40C0B50A00BF40A5DB0C00BF4060
:10A0F000B5E90E00BF405BC21000BF4056391200E8
:10A10000BF40F1111400BF40F1591600BF40A482B6
:10A110001800BF403F921A00BF40D55E1C00BF40F0
:10A120001CAB1E00BF4098AA2000BF4007D82200E9
:10A13000BF40015B2400BF4083122600BF40BE85A4
:10A140002800BF4031242A00BF40C37D2C00BF40FF
:10A150000C552E00BF40745D3000BF40BE7232000F
:10A16000BF40FEB13400BF40DE803600BF40A706CE
:10A170003800BF40DC9B3A00BF4074F13C00BF4058
:10A180009BC13E00BF40C1694000BF409BE442000C
:10A19000BF4086474400BF40BEEF4600BF40C69D5B
:10A1A0004800BF40C10F4A00BF40CCA14C00BF4097
:10A1B0000C244E00BF406F2C5000BF40E92D5200D0
:10A1C000BF40AA845400BF40744A5600BF40DCA977
:10A1D0005800BF40B05C5A00BF40DA885C00BF4006
:10A1E000F9765E00BF4052516000BF403E98620069
:10A1F000BF406DC66400BF4031A86600BF40C8279D
:10A200006800BF4003B06A00BF40C77F6C00BF401A
:10A2100059BF6E00BF40F30B7000BF40E0C6720034
:10A22000BF4047917400BF40A7D57600BF4051633F
:10A230007800BF40CA067A00BF4067297C00BF4053
:10A2400029147E00BF40850A8000BF40B7278200E6
:10A25000BF4038218400BF401B2E8600BF40FC6DEC
:10A260008800BF402C4D8A00BF40130D8C00BF40BA
:10A2700038538E00BF4054739000BF400A6592006F
:10A28000BF40BB0A9400BF406A769600BF402EC90B
:10A290009800BF40C2819A00BF40852C9C00BF40FF
:10A2A00072929E00BF40A1E8A000BF40BFA2A200E2
:10A2B000BF404B66A400BF401AA8A600BF40708BE9
:10A2C000A800BF404BC2AA00BF40A351AC00BF4092
:10A2D0006CC7AE00BF4019E8B000BF4092D1B200D9
:10A2E000BF402406B400BF4099D6B600BF408535B4
:10A2F000B800BF400EF4BA00BF4070A0BC00BF4021
:10A300006A10BE00BF4016C1C000BF40A419C20001
:10A31000BF40086CC400BF40371EC600BF404C772A
:10A32000C800BF404827CA00BF40B5BCCC00BF40F2
:10A33000B034CE00BF40B30CD000BF401C39D200B7
:10A34000BF404AAAD400BF40D84ED600BF404FCA33
:10A35000D800BF409C5BDA00BF40F36FDC00BF4019
:10A360002E68DE00BF40EE82E000BF408F74E20046
:10A37000BF406F63E400BF40A578E600BF4014789B
:10A38000E800BF40C884EA00BF400802EC00BF40BC
:10A39000C78CEE00BF40FAFFF000BF40BE90F20055
:10A3A000BF40EB6CF400BF4050A4F600BF40F7A3E1
:10A3B000F800BF40F9BEFA00BF40F278FC00BF4091
:10A3C00071C6FE00BF4067E60002BF40096A020294
:10A3D000BF4085AE0402BF4067BB0602BF4072F3B8
:10A3E0000802BF406E3C0A02BF403AF50C02BF4073
:10A3F0004FA50E02BF407F521002BF400E51120205
:10A40000BF408C681402BF40059B1602BF40ABD909
:10A410001802BF40831F1A02BF4019CD1C02BF4063
:10A42000E05B1E0230410B120A120C9302200D93C6
:10A430000B240A430B43FFEE00001A530B631F5318
:10A440000A9CF9230B9DF7233A413B4130410B1203
:10A450000A120912081207120612051204123150CC
:10A4600064FF814F98000A4E3D4040000E430F416B
:10A47000B0127CB104413450400005410E4A0E81B7
:10A48000814E68001F4168000F55F14F6000F14F89
:10A490006100F14F6200E14F63001E4162005F41C5
:10A4A0006000814364008F10814F66000F4E8F1053
:10A4B000464F0743184164001941660008D609D782
:10A4C0001C4160000D4E8C108D104CED0CED4D4D6F
:10A4D0003CF000FF0DF308DC09DD1A4160000B4E73
:10A4E0004BEA0BEA8B104A4A8A100C4A0D4B0CF3CC
:10A4F0003DF0FF000A480B490ADC0BDD854A0000ED
:10A50000854B020025520594BD231B4198003B500A
:10A510000002814B9A000C411A4198003A50000108
:10A52000814A6C000D4ABD4C0000BD4C02002D520A
:10A530000C94F9231F4198000E43814E68001E4F72
:10A540000601164F3801174F3A01184F2401194FD1
:10A550002601185F0001196F02010A4612C30A1092
:10A5600012C30A1012C30A104D478D100D5D0D5D08
:10A570000D5D0D5D0D5D0ADD814A70000A4712C355
:10A580000A1012C30A1012C30A104D468D100D5D39
:10A590000D5D0D5D0D5D0D5D0ADD814A6E000A46A3
:10A5A00012C30A100D470D110D430D100ADD814A2B
:10A5B00074000A4712C30A100D460D110D430D1009
:10A5C0000ADD814A72001C416E001D4170001CE1D1
:10A5D00072001DE174000A460B478A108B104AEB8B
:10A5E0000AEB4B4B12C30B100A1012C30B100A10CC
:10A5F0000CEA0DEB06480749065C076D1A4F04018B
:10A6000012C30A1012C30A104D4E8D100D5D0D5D60
:10A610000D5D0D5D0D5D0D5D0ADD814A78000A4E10
:10A6200012C30A1012C30A105D4F04018D100D5D94
:10A630000D5D0D5D0D5D0D5D0D5D0ADD814A7600E0
:10A640005A4F04018A100A5A0D4E12C30D1012C33C
:10A650000D1012C30D1012C30D1012C30D1012C332
:10A660000D1012C30D10054A05DD4A4E8A100A5A14
:10A670001D4F040112C30D1012C30D1012C30D1093
:10A6800012C30D1012C30D1012C30D1012C30D1002
:10A69000044A04DD184176001941780008E409E510
:10A6A0001A4F04010B4E12C30B100A1012C30B10E9
:10A6B0000A1012C30B100A100C480D490CEA0DEBDE
:10A6C0000A460B470A5C0B6D8F4A40018F4B4201D3
:10A6D000A15268002F52B190C000680030233D4065
:10A6E00020000E430F413F504000B0127CB13D406E
:10A6F00020001E419A000F413F504000B01282B02E
:10A7000018415000194152001B4198003B50000273
:10A71000814B9600043C1841920019419400164167
:10A7200040001741420091414400640091414600BD
:10A73000660091414800680091414A006A009141D9
:10A7400054006E0091415600700091415800720013
:10A7500091415A0074001A416C001C4A00FF1D4AC6
:10A7600002FF2C5A1D6A02000A4C0B4D1A515C0064
:10A770001B615E000D490D5D0D5D0D5D0D5D0D5D97
:10A780000F488F104F4F12C30F1012C30F1012C378
:10A790000F100DDF814D7A000D480D5D0D5D0D5DD3
:10A7A0000D5D0D5D0F498F104F4F12C30F1012C377
:10A7B0000F1012C30F100DDF814D7C004D498D101D
:10A7C0000D5D0D5D0F4812C30F1012C30F1012C3A1
:10A7D0000F1012C30F1012C30F1012C30F100DDF92
:10A7E000814D7E004D488D100D5D0D5D0F4912C3EA
:10A7F0000F1012C30F1012C30F1012C30F1012C389
:10A800000F1012C30F100DDF814D800014417A002C
:10A8100015417C0014E17E0015E180000D498D108A
:10A820004D4D12C30D100F480F5F0F5F0F5F0F5F8D
:10A830000F5F0F5F0F5F0DDF814D82000D488D10A0
:10A840004D4D12C30D100F490F5F0F5F0F5F0F5F6C
:10A850000F5F0F5F0F5F0DDF814D84001C41820091
:10A860001D4184000CE40DE50A5C0B6D1E41720075
:10A870001F4174000EC80FC91C416E001D417000BD
:10A880000CF80DF90EEC0FED0C4A0D4B0C5E0D6F34
:10A89000814C7600814D78001C514C001D614E00AA
:10A8A000814C9200814D94001E4164001F4166005E
:10A8B0001EE168001FE16A000A4E0B4F0AF60BF713
:10A8C0001C4168001D416A001CF164001DF1660016
:10A8D0000AEC0BED0D460D5D0D5D0D5D0F478F1004
:10A8E0004F4F12C30F1012C30F1012C30F1012C319
:10A8F0000F1012C30F100DDF814D88000D470D5D45
:10A900000D5D0D5D0F468F104F4F12C30F1012C318
:10A910000F1012C30F1012C30F1012C30F100DDF50
:10A92000814D86004D468D100D5D0D5D0D5D0D5DFB
:10A930000D5D0D5D0F4712C30F1012C30F100DDF19
:10A94000814D8C004D478D100D5D0D5D0D5D0D5DD4
:10A950000D5D0D5D0F4612C30F1012C30F100DDFFA
:10A96000814D8A00144186001541880014E18A0057
:10A9700015E18C000D4F12C30D1012C30D1012C340
:10A980000D1012C30D104F478F100F5F0F5F0DDFBB
:10A99000814D90000D4712C30D1012C30D1012C34C
:10A9A0000D1012C30D1012C30D1012C30D104F461F
:10A9B0008F100F5F0F5F0DDF814D8E001C418E00E9
:10A9C0001D4190000CE40DE50E4A0F4B0E5C0F6D1F
:10A9D0001A4176001B4178000A5E0B6F814A4000E5
:10A9E000814B42008146440081474600914164000A
:10A9F0004800914166004A00914168004C00914135
:10AA00006A004E00814854008149560091416E0011
:10AA10005800914170005A00914172005C009141D0
:10AA200074005E00A1526C00919196006C000224AB
:10AA3000304016A79141920050009141940052007D
:10AA40001E419A000D413D5040001C4198003C5071
:10AA50002002BE5D0000BE6D02002E520E9CF92346
:10AA60001B4198009B5320028B63220231509C00B3
:10AA70003441354136413741384139413A413B4112
:10AA800030410B120A120912081207120612074F60
:10AA9000084C064D0C9302200D930F24094E0A43D7
:10AAA0000B430E490F47B0124EA41A530B63395093
:10AAB00040000A98F6230B96F4233641374138417B
:10AAC00039413A413B4130410B120A120912081236
:10AAD000071206120512041231505EFF814F9600D4
:10AAE0000A4E814C9000814D92003D4080000E4303
:10AAF0000F41B0127CB1919392000E2CB1903800AE
:10AB000090000A2C91439C0081439E0008413850DC
:10AB1000400081489400063CA1439C0081439E0074
:10AB2000814194001D4190000E4A1F419400B012D3
:10AB300082B0194194001951900081499A00144142
:10AB4000900015419200064307431B4196001F4B9E
:10AB500020021D4B2202084F094D0A430B4308589F
:10AB600009690A6A0B6B085809690A6A0B6B08586D
:10AB700009690A6A0B6B085809690A6A0B6B08585D
:10AB800009690A6A0B6B085809690A6A0B6B0C445D
:10AB90000D450E460F470C580D690E6A0F6B0C5C85
:10ABA0000D6D0E6E0F6F0C5C0D6D0E6E0F6F0C5CED
:10ABB0000D6D0E6E0F6F18419A00F84080FF000077
:10ABC000814CA000814D9800484E0643074307483A
:10ABD0008710044F84104A440B430AD60BD7044E07
:10ABE000054F8410851044E504E5454506440745B6
:10ABF00036F000FF07F306DA07DB0B4F4BEE0BEEE8
:10AC00008B104A4E8A100AF33BF0FF0008460947B2
:10AC100008DA09DB8148880081498A0081438C0079
:10AC200081438E005841A000064307430748871020
:10AC3000084D88104A480B430AD60BD7044C054DE3
:10AC40008410851044E504E545450644074536F083
:10AC500000FF07F306DA07DB0B4D4BEC0BEC8B1018
:10AC60004A4C8A10084A094B08F339F0FF0006D80D
:10AC700007D9084309430A430B4309430A460B47D4
:10AC80001C4188001D418A001E418C001F418E001E
:10AC90000CD80DD90EDA0FDB814C8000814D82007B
:10ACA000814E8400814F86003A40F7FF3B431A8172
:10ACB00090001B7192003AF03F000BF31A531D41B4
:10ACC0009A000D5ADD41800000001D53DD418100D6
:10ACD00000001D53DD41820000001D53DD41830053
:10ACE00000001D53DD41840000001D53DD4185003F
:10ACF00000001D53DD4186000000DD41870001009A
:10AD00001C419C001D419E001E4194001F41960065
:10AD1000B01282AA3150A200344135413641374148
:10AD2000384139413A413B4130410B120A12091274
:10AD3000081207120612051204123150F0FF064FD6
:10AD4000365000020D4F3D502002814D08000E8FFD
:10AD50003E5000FE814E0A001E430E511E530F4E00
:10AD60001F53814F0C00814E0E002E4617460200E5
:10AD70004F4E814304008F10814F06000F478F1004
:10AD8000444F0543184104001941060008D409D571
:10AD90000C4E0D478C108D104CED0CED4D4D3CF0D4
:10ADA00000FF0DF308DC09DD0B474BEE0BEE8B10BB
:10ADB0004A4E8A100C4A0D4B0CF33DF0FF000E4832
:10ADC0000F490EDC0FDD814E0000814F02001F4154
:10ADD0000A000F56EF4100001F53DF410100000041
:10ADE0001F531D410E00EF4D00001E410C00EF4EA1
:10ADF0000100265216910800B8233150100034414A
:10AE0000354136413741384139413A413B41304182
:10AE10000B120A1209120812071206120512041266
:10AE2000315038FB044F084E054D1641DA041741E6
:10AE3000DC040B410A413A504000FB403600000060
:10AE40001B530B9AFA230B413B5040000A4B3A50DC
:10AE50004000FB405C0000001B530B9AFA233C406F
:10AE600040000D430E480F41B01226A43D4024027D
:10AE70000E430F413F508000B0127CB10A460B4791
:10AE800012C30B100A1012C30B100A1012C30B10BE
:10AE90000A1012C30B100A1012C30B100A1012C3AF
:10AEA0000B100A10094A0959095909590959095930
:10AEB000095909550F413F508000B012C4A00E41FE
:10AEC0000F413F508000B0124EA40C4A0D4B0E456E
:10AED0000F413F508000B01282AA0C460D473CF053
:10AEE0003F000DF30E490F413F508000B012C8AA39
:10AEF0000E410F413F508000B0122AAD3C4040004F
:10AF00000D430E480F413F504000B01226A43D4073
:10AF100024020E430F413F50A402B0127CB10F41F6
:10AF20003F50A402B012C4A00E413E5040000F4159
:10AF30003F50A402B0124EA43C4020000D430E41ED
:10AF40000F413F50A402B012C8AA0E440F413F5017
:10AF5000A402B0122AAD3150C80434413541364103
:10AF60003741384139413A413B4130410B120A12D5
:10AF70000912081207120612051231509CFD054FE6
:10AF8000084E064C074D0B410A413A504000CB4356
:10AF900000001B530B9AFB231793092C369041009A
:10AFA000062C0D460E480F41B01282B0423C3D4087
:10AFB00024020E430F413F504000B0127CB10A46BC
:10AFC0000B4712C30B100A1012C30B100A1012C346
:10AFD0000B100A1012C30B100A1012C30B100A1028
:10AFE00012C30B100A10094A09590959095909597C
:10AFF0000959095909580F413F504000B012C4A0E7
:10B000000C4A0D4B0E480F413F504000B01282AA2F
:10B010000C460D473CF03F000DF30E490F413F50E9
:10B020004000B012C8AA0E410F413F504000B0127C
:10B030002AAD11127A0211127A021D4178020E41D4
:10B040002E520F45B01210AE3150680235413641D4
:10B050003741384139413A413B41304111120600F4
:10B0600011120600B01210AE215230411112080028
:10B070001112080011120800B0126CAF3150060016
:10B0800030410B120A120912081207120D93702494
:10B090000F9E6E24342C0C4E0CDF1CF31B240C4E24
:10B0A0000CEF1CF307202D9307280B4E1BF32C43AA
:10B0B0000C8B033C0C4D013C1C430D8C0A4C094E7F
:10B0C0000B4FFB4900001B533A53FB230A4F0A5C0A
:10B0D0000E5C013C0A4F0B4D12C30B100B24094BA5
:10B0E000084E0C4ABC4800002C533953FB230B5B21
:10B0F0000E5B0A5B1DF33C24EA4E0000393C0E5DFA
:10B100000C4F0C5D0B4C0BDE1BF31B240B4C0BEE9E
:10B110001BF306203D90030003280B4E1BF3013C5C
:10B120000B4D0D8B094E0A4C084B088C3A53395382
:10B13000EA490000074A0758F9233BE31B530C5B1D
:10B140000E5B0B4D12C30B100E240A4B084E094C1C
:10B1500028832983A94800003A53FA230A8B0B4A13
:10B160000B5B0E5B0C5B1DF30324DC4EFFFFFFFF4C
:10B170003741384139413A413B4130410B120A12C3
:10B18000091208123D900600092C0C4F043CCC4ECD
:10B1900000001C533D530D93FA23203C4E4E4B4E62
:10B1A0000B9303240C4B8C100BDC1FB306243D5374
:10B1B000CF4E0000094F1953013C094F0C4D12C3EB
:10B1C0000C100A49084C8A4B00002A533853FB23C1
:10B1D0000C5C0C591DF30224CC4E0000384139415F
:10B1E0003A413B4130410343034303430343034399
:10B1F000034303430343034303430343034303431F
:10B20000034303430343034303430343034303430E
:10B2100003430343034303430343034303430343FE
:10B2200003430343034303430343034303430343EE
:10DFF00003430343034303430343034303430046F1
:10E000005542200135D0085A824500123140006245
:10E010003F4000000F9308249242001220012F83FA
:10E020009F4F90E10002F8233F4000000F93072428
:10E030009242001220011F83CF430012F923315076
:10E04000E0FFB240805A20018243220132D24D4388
:10E050003E4020003F404001B012FCE0B240DAE018
:10E060006001B240EEE06201B24000026401B240E1
:10E07000100266011E4268013F4000023F9000020C
:10E0800002201E930220B012F6E0B012DAE03D400A
:10E0900020003E4040013F404001B01216E14D4398
:10E0A0000E413F404001B01238E10F410D413D505B
:10E0B00020007E4FC24E19000F9DFB2392936801F2
:10E0C0000224B012F6E0B012F0E00F43315020000D
:10E0D00032D0F000FD3F30408EE13E4000024F4321
:10E0E000CE4F00006F531E537F904000F923304104
:10E0F00032D0F000304132D0F00030410B121E938C
:10E1000008380C430B4F0B5CCB4D00001C530C9E8E
:10E11000F9233B4130410B120A121D930A380C437C
:10E120000A4E0A5C0B4F0B5CEB4A00001C530C9D23
:10E13000F7233A413B4130410B120A120B4E4A4D34
:10E140003D4020000E4F3F403002B01216E132C277
:10E150000343051206123640100035400003854087
:10E160000000855600000541314002104F4AB012B0
:10E1700000A001453641354132D23D4020003E40AD
:10E1800030020F4BB01216E13A413B4130410013CF
:10FFE000D6E0D6E0D6E0D6E0D6E0D6E0D6E0D6E061
:10FFF000D6E0D6E0D6E0D6E0D6E0D6E0D6E000E027
:040000030000E00019
:00000001FF
